:100000000C945D000C9485000C9485000C94850084
:100010000C9406040C9485000C9485000C948500C7
:100020000C9485000C9485000C9485000C9485003C
:100030000C9485000C9485000C9485000C9485002C
:100040000C944B030C9485000C94BB030C94950307
:100050000C9485000C9485000C9485000C9485000C
:100060000C9485000C9485000000000024002700FB
:100070002A0000000000250028002B0004040404CE
:100080000404040402020202020203030303030342
:10009000010204081020408001020408102001021F
:1000A00004081020000000080002010000030407FB
:1000B0000000000000000000060611241FBECFEF64
:1000C000D8E0DEBFCDBF11E0A0E0B1E0E6E7FCE0A4
:1000D00002C005900D92A034B107D9F722E0A0E448
:1000E000B1E001C01D92A537B207E1F710E0CDE500
:1000F000D0E004C02197FE010E943306CC35D10721
:10010000C9F70E9456040C9439060C94000090E044
:10011000FC01EC55FF4F2491FC01E057FF4F349157
:10012000FC01E458FF4FE491EE23C9F0222339F09B
:10013000233001F1A8F4213019F1223029F1F0E047
:10014000EE0FFF1FEE58FF4FA591B4918FB7F894B3
:10015000EC91611126C030953E233C938FBF0895EA
:100160002730A9F02830C9F0243049F78091800069
:100170008F7D03C0809180008F7780938000DFCFD8
:1001800084B58F7784BDDBCF84B58F7DFBCF809125
:10019000B0008F778093B000D2CF8091B0008F7D78
:1001A000F9CF3E2BDACFCF93DF93D82FC8E08091E1
:1001B0006E0261E0D7FF60E00E94870060E08091FE
:1001C0006F020E948700DD0F61E080916F020E9444
:1001D0008700C15061F7DF91CF9108950F931F936E
:1001E000CF93DF938C0161E0809170020E948700C1
:1001F00060E080916D020E948700E80103E710E053
:100200008991882389F090917102992351F08EBDD4
:1002100000000DB407FEFDCF8EB5C8010197F1F7C0
:10022000EFCF0E94D300F9CF61E080916D02DF91A2
:10023000CF911F910F910C948700CF93DF9390E0A3
:10024000FC01E057FF4F249184589F4FFC0184919B
:100250008823D1F090E0880F991FFC01E859FF4FE7
:10026000A591B491FC01EE58FF4FC591D491623035
:1002700071F49FB7F8943C91822F809583238C93DF
:10028000E8812E2B28839FBFDF91CF9108958FB7F0
:10029000F894EC912E2B2C938FBFF6CF3FB7F894A8
:1002A0008091690290916A02A0916B02B0916C02F8
:1002B00026B5A89B05C02F3F19F00196A11DB11DC1
:1002C0003FBFBA2FA92F982F8827BC01CD01620FFD
:1002D000711D811D911D42E0660F771F881F991FB8
:1002E0004A95D1F708958F929F92AF92BF92CF9285
:1002F000DF92EF92FF924B015C010E944E016B0175
:100300007C010E944E016C197D098E099F09683E8F
:10031000734081059105A8F321E0821A9108A10894
:10032000B10888EEC80E83E0D81EE11CF11C8114D0
:100330009104A104B10429F7FF90EF90DF90CF90D2
:10034000BF90AF909F908F900895CF93C82F60E09B
:10035000809170020E94870060E080916D020E948F
:100360008700809171028823C9F0CEBD00000DB4D2
:1003700007FEFDCF8EB561E080916D020E9487007F
:1003800083E790E0FC013197F1F7C43058F461E065
:1003900070E080E090E0CF910C9473018C2F0E946C
:1003A000D300E9CF0197F1F7CF91089580E80E943B
:1003B000A5018BE191E00E94EE00809173028230F2
:1003C00051F0833051F080E080580E94A5018AE00E
:1003D00091E00C94EE0080E4F7CF80E1F5CFAF928E
:1003E000BF92CF92DF92EF92FF920F931F93CF9322
:1003F000DF936C017B018B01040F151FEB015E0184
:10040000AE18BF08C017D10759F06991D601ED9118
:10041000FC910190F081E02DC6010995892B79F7B7
:10042000C501DF91CF911F910F91FF90EF90DF9069
:10043000CF90BF90AF900895FC01538D448D252F30
:1004400030E0842F90E0821B930B541710F0CF966E
:10045000089501970895FC01918D828D9817F1F010
:10046000A28DB0E0AA0FBB1FAE0FBF1F5D962D91EE
:100470003C91A289B3898C9182FD0AC0A28DB0E023
:10048000AA0FBB1FAE0FBF1F5D962D913C91332766
:10049000828D8F5F8F73828FC90108958FEF9FEFD9
:1004A0000895FC01918D828D981749F0828D90E01E
:1004B000880F991FE80FF91F858D968D08958FEF8E
:1004C0009FEF0895FC01918D228D892F90E0805C33
:1004D0009F4F821B91098F739927089583E491E0C0
:1004E0000E94620221E0892B09F420E0822F089506
:1004F00080E090E0892B29F00E946E0281110C941B
:1005000000000895CF93DF93FC01A48DB0E0AA0F03
:10051000BB1FAE0FBF1FA356BF4F8C9111962C91DE
:10052000EF01C15EDE4F88832983848D90E00196C0
:100530008F739927848FA289B3898C9182FF05C01C
:100540008C912223C1F081608C93A689B789888120
:100550008C93A089B1898C9180648C93938D848DC8
:10056000981306C00288F389E02D80818F7D8083F7
:10057000DF91CF9108958E7FE7CFDF92EF92FF92C8
:100580000F931F93CF93DF93EC0181E0888F7170FD
:100590008E01015E1E4FD8016D937C939B8D8C8DD7
:1005A00098131EC0E889F989808185FF19C0EA89FE
:1005B000FB89808182FD2CC0EE89FF89D8018C9156
:1005C0008083E889F98980818064808381E090E07C
:1005D000DF91CF911F910F91FF90EF90DF900895E1
:1005E000EB8CF12CBFEFEB1AFB0AEFE3EE22FF24BA
:1005F000DE2C8C8D8D1114C00FB607FCFACFE88964
:10060000F989808185FFF5CFCE010E948202F1CF6A
:100610008081772319F081608083CECF8E7FFCCFDD
:10062000EB8DF0E0EE0FFF1FEC0FFD1FE356FF4FC9
:10063000D8018D919C9191838083EB8EEA89FB890F
:1006400080818062C2CFCF93DF93EC01888D8823B5
:10065000B9F0AA89BB89E889F9898C9185FD03C025
:10066000808186FD0DC00FB607FCF7CF8C9185FF0A
:10067000F2CF808185FFEDCFCE010E948202E9CFCB
:10068000DF91CF91089570E0DC01ED91FC9106843B
:10069000F785E02D09941F920F920FB60F92112447
:1006A0002F933F938F939F93AF93BF938091650256
:1006B00090916602A0916702B09168023091640245
:1006C00023E0230F2D3758F50196A11DB11D20936E
:1006D00064028093650290936602A0936702B093D0
:1006E00068028091690290916A02A0916B02B091B8
:1006F0006C020196A11DB11D8093690290936A025C
:10070000A0936B02B0936C02BF91AF919F918F91B8
:100710003F912F910F900FBE0F901F90189526E8D4
:10072000230F0296A11DB11DD2CF1F920F920FB6BB
:100730000F9211242F933F934F935F936F937F9367
:100740008F939F93AF93BF93EF93FF9383E491E0D5
:100750000E948202FF91EF91BF91AF919F918F9183
:100760007F916F915F914F913F912F910F900FBEAD
:100770000F901F9018951F920F920FB60F92112491
:100780002F933F938F939F93AF93BF93EF93FF93D9
:10079000E0915301F09154018081A0915501B091F5
:1007A0005601E0915901F0915A0182FD2CC08C91C3
:1007B0008695817080936102808180936002809130
:1007C0005C018F5F8F7390915D01891779F0E091E3
:1007D0005C01F0E0EE0FFF1FED5BFE4F2091600229
:1007E00030916102368F258F80935C01FF91EF91EC
:1007F000BF91AF919F918F913F912F910F900FBE1D
:100800000F901F9018958C918081F0CF1F920F92BE
:100810000FB60F9211242F934F935F936F937F9393
:100820008F939F93AF93BF932FB7F89480916502F6
:1008300090916602A0916702B09168022FBF40912B
:10084000400150914101052E000C660B770B841B73
:10085000950BA60BB70B4597A105B10550F086B1D6
:1008600020E1829FC0011124992790930901809370
:1008700008012FB7F8948091650290916602A091CB
:100880006702B09168022FBF9093410180934001AD
:10089000BF91AF919F918F917F916F915F914F9198
:1008A0002F910F900FBE0F901F901895789484B5DC
:1008B000826084BD84B5816084BD85B5826085BD5C
:1008C00085B5816085BD80916E00816080936E00EA
:1008D00010928100809181008260809381008091DC
:1008E000810081608093810080918000816080938D
:1008F00080008091B10084608093B1008091B0004D
:1009000081608093B00080917A00846080937A0047
:1009100080917A00826080937A0080917A00816071
:1009200080937A0080917A00806880937A00109298
:10093000C10062E08FE00E941D0162E080E10E9440
:100940001D0162E081E10E941D0162E08EE00E94D3
:100950001D01F89480916800826080936800809106
:100960006C008F6080936C0078948CE080937402AC
:1009700088E08093700261E00E941D018AE080930C
:100980006D0281E0809371028BE080936E028DE0B6
:1009900080936F0261E08AE00E94870061E08091AD
:1009A0006D020E941D0161E080916E020E941D0196
:1009B00061E080916F020E94870061E080916F0288
:1009C0000E941D0180917102882309F440C0CFB7B5
:1009D000F89480914201811127C0E6E8F0E084910B
:1009E000EAE9F0E09491E82FF0E0EE0FFF1FE859FC
:1009F000FF4FA591B491EC91E92321F461E08AE0E5
:100A00000E94870061E08AE00E941D018CB5806130
:100A10008CBD8CB580648CBD61E08DE00E941D01B1
:100A200061E08BE00E941D01809142018F5F809305
:100A30004201CFBF8CB58F7D8CBD8CB58C608CBDD9
:100A40008CB58C7F81608CBD8DB58E7F8DBD60E057
:100A500084E00E94870061E084E00E941D0183E23F
:100A600090E00197F1F761E084E00E94870065E083
:100A700070E080E090E00E94730181E08093720258
:100A800082E08093730260E088E00E948700C0E00B
:100A9000D1E089910E94A50181E0C830D807C9F74B
:100AA000809174028460809374020E94A5018091F9
:100AB00074028E7F809374020E94A501809174025B
:100AC0008460809374020E94A501E0915301F0912B
:100AD000540182E08083E0914F01F0915001108237
:100AE000E0915101F09152018FEC808310925B01F3
:100AF000E0915701F09158018EE38083E091550118
:100B0000F0915601808180618083E0915501F091E0
:100B10005601808188608083E0915501F0915601F3
:100B2000808180688083E0915501F0915601808139
:100B30008F7D8083E0915501F09156018081846022
:100B400080830E94D60160ED77E080E090E00E9413
:100B5000730100E010E083E491E00E946202181645
:100B60001906CCF783E491E00E942B028E3F910599
:100B7000D9F5D0E0C0E083E491E00E94620218164B
:100B80001906CCF783E491E0C031D105CCF50E9481
:100B90002B02FE01E55EFE4F80832196C032D10517
:100BA00051F783E491E00E94620218161906CCF70F
:100BB00083E491E00E942B028F3F9105A9F480917C
:100BC000080190910901807F992760EF70E0803FD4
:100BD000910521F0609108017091090183E491E091
:100BE0000E94BD020E94D6010115110509F4B3CF80
:100BF0000E946E02882309F4AECF0E940000ABCFA2
:100C00000E942B02FE01E650FF4FC6CFE3E4F1E065
:100C10001382128288EE93E0A0E0B0E08483958393
:100C2000A683B78380E391E09183808385EC90E095
:100C30009587848784EC90E09787868780EC90E0A6
:100C4000918B808B81EC90E0938B828B82EC90E097
:100C5000958B848B86EC90E0978B868B118E128E11
:100C6000138E148E0895EE0FFF1F0590F491E02D62
:060C70000994F894FFCF87
:100C7600391C526974380106F000202020416E6448
:100C86007265204B75686E202020004A65746942A3
:100C96006F782D4D6963726F206279000000000045
:100CA6004303EF011C02230362022B025102BD0221
:00000001FF
